S010000041756667616265332E7372656336
S11300000C9434000C943E000C943E000C943E007E
S11300100C943E000C943E000C943E000C943E0064
S11300200C943E000C943E000C943E000C943E0054
S11300300C943E000C943E000C943E000C943E0044
S11300400C943E000C943E000C943E000C943E0034
S11300500C943E000C943E000C943E000C943E0024
S11300600C943E000C943E0011241FBECFEFD8E048
S1130070DEBFCDBF0E9440000C94B9000C94000078
S113008084B1876084B988B18F6188B9D0E0C0E059
S113009010E040E0E0E02AE030E0F12C01E003C0B1
S11300A0E11101C0ED2FC111E150F5B18E2F90E0A7
S11300B00197B9010E9491006095F87FF62BF5B97C
S11300C05FEF81EE94E0515080409040E1F700C032
S11300D00000309B02C041601BC040FF19C0329B2E
S11300E002C0116001C01E7F339B02C0126001C0B8
S11300F01D7F349B02C0146001C01B7FD12FDD0F14
S1130100DE5F8D2F880F880FD80F4E7FED2FCF2DF8
S1130110319B02C04260C4CF41FFC2CF4D7FC02F8C
S1130120BFCF97FB072E16F4009407D077FD09D0B4
S11301300E94A50007FC05D03EF4909581959F4F41
S11301400895709561957F4F0895AA1BBB1B51E1DB
S113015007C0AA1FBB1FA617B70710F0A61BB70B33
S1130160881F991F5A95A9F780959095BC01CD01D8
S10901700895F894FFCF8E
S9030000FC
