:100000000C9434000C9448000C9446000C94460068
:100010000C9457000C9446000C9446000C94460037
:100020000C9446000C9446000C9446000C94460038
:100030000C9446000C9446000C9446000C94460028
:100040000C9446000C9446000C9446000C94460018
:100050000C9446000C9446000C9446000C94460008
:100060000C9446000C94460011241FBECFEFD8E03C
:10007000DEBFCDBF21E0A0E0B1E001C01D92A23003
:10008000B207E1F70E9468000C94EE000C940000A7
:100090001F920F920FB60F9211248F9381E08093DD
:1000A00000018F910F900FBE0F901F9018951F9217
:1000B0000F920FB60F9211248F93809101018160EE
:1000C000809301018F910F900FBE0F901F90189594
:1000D00087B1876087B9439A8BB1846E8BB9E9E6A3
:1000E000F0E080818C7F8083808182608083E89AC9
:1000F000E8E6F0E08081897F808380818260808370
:10010000ECE6F0E08081886080837894F0E0C0E0E5
:100110002AE030E04F2F411101C04F2F80910001A4
:1001200081114150E8B1842F90E00197B9010E94FC
:10013000C6006095E87FE62BE8B95FEF81EE94E0BA
:10014000515080409040E1F700C0000080910101D3
:1001500080FFE1CF4D9B02C0C16001C0CE7F4E9BAE
:1001600002C0C26001C0CD7F4F9B02C0C46001C00D
:10017000CB7FFC2FFF0FFE5F9F2F990F990FF90F79
:100180008E7F8093010110920001C4CF97FB072E50
:1001900016F4009407D077FD09D00E94DA0007FC1E
:1001A00005D03EF4909581959F4F08957095619587
:1001B0007F4F0895AA1BBB1B51E107C0AA1FBB1F9D
:1001C000A617B70710F0A61BB70B881F991F5A95E3
:1001D000A9F780959095BC01CD010895F894FFCFC3
:00000001FF
