S010000041756667616265312E7372656338
S11300000C9434000C943E000C943E000C943E007E
S11300100C943E000C943E000C943E000C943E0064
S11300200C943E000C943E000C943E000C943E0054
S11300300C943E000C943E000C943E000C943E0044
S11300400C943E000C943E000C943E000C943E0034
S11300500C943E000C943E000C943E000C943E0024
S11300600C943E000C943E0011241FBECFEFD8E048
S1130070DEBFCDBF0E9440000C944E000C940000E3
S113008087E084B980E090E030E020E085B9019613
S113009088309105DCF3832F922FF8CFF894FFCFAB
S9030000FC
