S010000041756667616265312E7372656338
S11300000C9434000C943E000C943E000C943E007E
S11300100C943E000C943E000C943E000C943E0064
S11300200C943E000C943E000C943E000C943E0054
S11300300C943E000C943E000C943E000C943E0044
S11300400C943E000C943E000C943E000C943E0034
S11300500C943E000C943E000C943E000C943E0024
S11300600C943E000C943E0011241FBECFEFD8E048
S1130070DEBFCDBF0E9440000C945A000C940000D7
S113008087E084B980E090E040E030E025B1287F4B
S1130090282B25B92FEF53ED60E3215050406040E9
S11300A0E1F700C000000196883091057CF3842FAD
S10B00B0932FECCFF894FFCF6D
S9030000FC
