S010000041756667616265322E7372656337
S11300000C9434000C9448000C9446000C94460064
S11300100C9457000C9468000C9446000C94460011
S11300200C9446000C9446000C9446000C94460034
S11300300C9446000C9446000C9446000C94460024
S11300400C9446000C9446000C9446000C94460014
S11300500C9446000C9446000C9446000C94460004
S11300600C9446000C94460011241FBECFEFD8E038
S1130070DEBFCDBF21E0A0E0B1E001C01D92A430FD
S1130080B207E1F70E9478000C9414010C9400006C
S11300901F920F920FB60F9211248F9381E08093D9
S11300A002018F910F900FBE0F901F9018951F9211
S11300B00F920FB60F9211248F93809103018160E8
S11300C0809303018F910F900FBE0F901F9018958E
S11300D01F920F920FB60F9211248F9380910101FA
S11300E0809300018F910F900FBE0F901F90189571
S11300F087B1876087B9439A8BB1846E8BB9E9E67F
S1130100F0E080818C7F8083808182608083E89AA4
S1130110E8E6F0E08081897F80838081826080834B
S1130120ACE6B0E08C9188608C93549A80818460B2
S11301308083EDE6F0E08081806180837894F0E054
S1130140E0E12AE030E080910001811103C08BB12D
S11301508E278BB980910201882329F080910001B8
S113016081508093000148B18091000190E0019793
S1130170B9010E94EC006095487F462B48B94FEFC7
S113018081EE94E0415080409040E1F700C00000CF
S11301908091030180FFD7CF4D9B02C0F16001C065
S11301A0FE7F4E9B02C0F26001C0FD7F4F9B02C0E8
S11301B0F46001C0FB7F9F2F990F9E5F492F440F6E
S11301C0440F940F909301018E7F809303019093C9
S11301D0000110920201B7CF97FB072E16F400948A
S11301E007D077FD09D00E94000107FC05D03EF43A
S11301F0909581959F4F0895709561957F4F0895CF
S1130200AA1BBB1B51E107C0AA1FBB1FA617B70738
S113021010F0A61BB70B881F991F5A95A9F7809554
S10F02209095BC01CD010895F894FFCF27
S9030000FC
